:020000040800F2
:1050000088AA0120695200087152000873520008F2
:10501000755200087752000879520008000000001D
:105020000000000000000000000000007B520008AB
:105030007D520008000000007F52000881520008E5
:1050400083520008835200088352000883520008EC
:1050500083520008835200088352000883520008DC
:1050600083520008835200088352000883520008CC
:10507000C9AD00083BAE0008A3AD000813AE0008A0
:1050800083520008835200088352000883520008AC
:10509000835200088352000883520008835200089C
:1050A000835200088352000883520008DBBB0008CB
:1050B000378E000879B20008835200088352000836
:1050C000835200088352000883520008835200086C
:1050D0008352000845C7000883520008EFAD00085E
:1050E000835200088352000883520008835200084C
:1050F000835200088352000883520008835200083C
:10510000835200088352000883520008835200082B
:1051100063AE00088352000883520008C55500089A
:10512000CD9A00088352000883520008EF9A0008C5
:1051300083520008835200088352000883520008FB
:105140002BB40008835200088352000883520008E1
:105150008352000883520008E7C800088352000801
:1051600083520008835200088352000883520008CB
:1051700083520008835200088352000883520008BB
:105180008352000800F002F800F05FF80AA090E8EF
:10519000000C82448344AAF10107DA4501D100F0F2
:1051A00054F8AFF2090EBAE80F0013F0010F18BF60
:1051B000FB1A43F00103184788800000A880000014
:1051C0000A444FF0000C10F8013B13F0070408BF2D
:1051D00010F8014B1D1108BF10F8015B641E05D0CB
:1051E00010F8016B641E01F8016BF9D113F0080F80
:1051F0001EBF10F8014BAD1C0C1B09D16D1E58BF12
:1052000001F801CBFAD505E014F8016B01F8016B48
:105210006D1EF9D59142D6D37047000000230024BB
:1052200000250026103A28BF78C1FBD8520728BFB6
:1052300030C148BF0B607047632907F01985002013
:1052400070471FB51FBD10B510BD07F04BFD1146CF
:10525000FFF7F7FF03F0A0FD07F069FD03B4FFF7C8
:10526000F2FF03BC00F0A1FA094880470948004753
:10527000FEE7FEE7FEE7FEE7FEE7FEE7FEE7FEE706
:10528000FEE7FEE704480549054A064B7047000063
:10529000A95200088551000888A4012088AA01208D
:1052A00088A6012088A601204D4810B5016841F06C
:1052B000010101604A4A0021083211600268494B2D
:1052C0001A400260031D484A1A60026822F48022D4
:1052D000026043480C30016000F03BF843494FF056
:1052E0000060086010BD70B53D4C08342068404A2D
:1052F00010F00C013F4804D05510042903D00829B0
:1053000003D002601BE0056019E03549091D0B68F8
:10531000C3F380560B6803F03F0316B1B5FBF3F2FD
:1053200001E0B2FBF3F20B680968C3F388135A4338
:10533000C1F30141491C4900B2FBF1F10160216850
:105340002C4AC1F30311121D515C0268CA4002606D
:1053500070BD0CB50021224801910091026842F411
:10536000803202604FF4A063026802F400320092BF
:10537000019A521C0192009A12B9019A9A42F3D1F1
:105380000268920329D501210091154908310A6864
:105390000A600A6842F400420A600A6842F4A052B5
:1053A0000A600B1F144A1A60026842F080720260A1
:1053B00002689201FCD5114A40F20370106008683F
:1053C00020F003000860086840F0020008600868E8
:1053D000C0F381000228FAD10CBD00910CBD000081
:1053E00000380240FFFFF6FE1030002408ED00E018
:1053F0000024F400000000200A4B4005003C02405D
:10540000144908B1012800D108711249124800F06E
:105410008DBA10B50121042000F056FC012188034B
:1054200000F07AFCBDE810400020E9E74FF48071FD
:10543000094800F0F5BA4FF48071074800F0F2BA5D
:105440004FF48071044800F0F6BA4FF480710248BE
:1054500000F0D2BA14000020000802404FF480414E
:10546000124800F0DFBA4FF48041104800F0D8BA7B
:105470004FF480410D4800F0DEBA1CB50121022036
:1054800000F022FC012081038DF8040000918DF8CA
:10549000060000218DF807108DF8050069460348C5
:1054A00000F044FAFFF7DAFF1CBD000000040240E0
:1054B00010B5FFF7C5FF724CE078401CC0B2E07039
:1054C00012280DD0A16811F0004F4FEA4101A160F0
:1054D000207801D000EB400021690844E06010BD55
:1054E0000020FFF78DFF012020712169654A1160BE
:1054F0006071A078607010BD61484078704770B5E9
:105500005F4C0546607808B1052806D1002629B110
:10551000012905D0022905D0002070BDA67003E046
:10552000032000E00420A0700120FFF769FFA560C0
:10553000E6700120607070BD524870475048007896
:1055400070479821801E90FBF1F201FB12004C493C
:10555000801CC0B208707047494A116913695B1A10
:105560008342FBD370477FB50121202000F0CAFBA6
:105570000024ADF802400520ADF800000920424D9E
:10558000ADF8084001908DF80A406946284600F0C1
:10559000EFFC01221146284601F073F837208DF800
:1055A0000C0001208DF80F008DF80D408DF80E4095
:1055B00003A800F008F90121284600F051FD304809
:1055C00004617FBD2DE9F04101212F4801F079F8F8
:1055D0002B4C2069401C206160780026294D05274E
:1055E000052808D2DFE800F0070309102E00FFF7B6
:1055F0005FFF02206070BDE8F0812069E1688842A9
:10560000F9D1BDE8F04153E7FFF71FFF2179884248
:105610000BD020712169607945F82010401CC0B280
:1056200060710228E7D16670E5E76079216905EBD2
:10563000800050F8040C081A2178B0EBC10FDAD9B9
:105640006770D8E7FFF701FF217988420AD02071FF
:105650002169607945F82010401CC0B260711328A0
:10566000E1D0C8E76079216905EB800050F8040CAF
:10567000091A207800EB800014308142E0D8BAE7A4
:105680001C000020980400200014004030B587B0B2
:105690000121022000F018FB444D07220A21284670
:1056A00000F0CDF92815022404908DF8144004A9C7
:1056B000284600F03BF90121022000F005FB0722FB
:1056C0000B21284600F0BBF9A00204908DF814408D
:1056D00004A9284600F02AF90121880400F012FBF1
:1056E0004FF4E13000900020ADF80400ADF8060062
:1056F000ADF80800ADF80C000C202D4CADF80A00F8
:105700006946204601F0CDF80121204601F03AF922
:1057100007B030BD08B5012240F22551244801F000
:10572000D0F927208DF8000001208DF8010000211C
:105730008DF802108DF80300684600F044F808BDAB
:1057400010B51B4C2021204601F0D3F90028F9D0D8
:10575000204601F041F9C0B210BD70B50E460546B5
:10576000002409E0FFF7ECFF285501460D2809D079
:1057700010A007F0DDF8641CB442F3DB00202855CC
:10578000204670BD0CA007F0D3F8F7E770B5084DC0
:1057900004468021284601F0ACF90028F9D0E1B296
:1057A000284601F015F9204670BD704700040240FC
:1057B00000480040256300000D0A00002849084306
:1057C00028490860704730B50F22C478017801235A
:1057D000FCB1244C246801F1E02104F4E064C4F538
:1057E000E064C4F30724C4F10405E2404478AC400B
:1057F0008578154025432A0181F80024007800F0BF
:105800001F018B404009800000F1E020C0F800310A
:1058100030BD01F01F0083404809800000F1E02006
:10582000C0F8803130BD104A114001430D48001FBF
:10583000016070470B4A121D0029116801D0014315
:1058400000E08143116070474FF0E02104280869AF
:1058500003D020F004000861704740F00400FAE72C
:105860000000FA050CED00E080FFFF1F7C4910B539
:10587000884206D10121084600F058FA0021012093
:105880004FE07849884206D10121022000F04EFA0B
:105890000021022045E07449884206D101210420FC
:1058A00000F044FA002104203BE07049884206D110
:1058B0000121082000F03AFA0021082031E06C496B
:1058C000884206D10121102000F030FA002110207A
:1058D00027E06849884206D10121202000F026FAFD
:1058E000002120201DE06449884206D1012140208A
:1058F00000F01CFA0021402013E06049884206D1E4
:105900000121802000F012FA0021802009E05C498A
:1059100088420AD184150121204600F007FA0021AF
:105920002046BDE8104000F001BA10BDF0B50023DC
:10593000012403270D6804FA03F21540954242D171
:10594000D0F800C05E0007FA06F52CEA050CC0F896
:1059500000C091F804C0D0F800E00CFA06FC4CEA54
:105960000E0CC0F800C091F804C0BCF1010F02D0C9
:10597000BCF1020F1FD1D0F808C02CEA050CC0F80A
:1059800008C091F805C0D0F808E00CFA06FC4CEA13
:105990000E0CC0F808C0D0F804C02CEA020CC0F805
:1059A00004C0426891F806C00CFA03FC1FFA8CFC94
:1059B00042EA0C024260C268AA43C260CA79C56862
:1059C000B2402A43C2605B1C102BB3D3F0BD4FF62C
:1059D000FF7101600021017141718171C1717047D6
:1059E00008B541F480320092C261C1610099C16181
:1059F000C169C069009008BD0246002012690A42D0
:105A000000D001207047006980B270470246002034
:105A100052690A4200D001207047406980B2704745
:105A200001837047418370470AB101837047418306
:105A300070474161704742694A40426170474B0775
:105A4000DB0E9A40C90810B500EB8100016A0F24F3
:105A50009C40A1430162016A1143016210BD000034
:105A6000000002400004024000080240000C024016
:105A7000001002400014024000180240001C0240C6
:105A800000200240EA48016841F001010160E84A53
:105A90000021083211600268E64B1A400260031DC3
:105AA000E54A1A60026822F480220260E0480C3065
:105AB00001607047DE490022891C0A700870704737
:105AC00002460020510901290CD002290CD0D849E6
:105AD0007431096802F01F02012393400B4200D089
:105AE00001207047D249F4E7D1497031F1E718B588
:105AF00000204FF4A06400903120FFF7E1FF0099EF
:105B0000491C0091A14201D00028F5D03120FFF7B7
:105B1000D7FF002800D0012018BDC5490A6822F02F
:105B2000F80242EAC00008607047C4490860704744
:105B3000BF49002270310A700A70012802D004287F
:105B400001D1052008707047BD490860704741EADF
:105B500082115A0810B5BB4B029C03EB0242114361
:105B6000014341EA0460B249091D086010BDB34910
:105B700008667047800140EA0170AD4984310860D1
:105B80007047AE4988667047AC49C8647047A84AF8
:105B900008321368084323F0EC6318431060704721
:105BA000A34A08321368084323F07843184310606F
:105BB00070479F4A0832116821F0030101431160C8
:105BC00070479B480830006800F00C007047984A06
:105BD0000832116821F0F001014311607047944AC6
:105BE0000832116821F4E051014311607047904977
:105BF00008310A6822F4604242EAC0000860704737
:105C000070B58B4A083211688F4C11F00C0104D02A
:105C10006610042903D0082903D004601BE0066045
:105C200019E08349091D0B68C3F380550B6803F025
:105C30003F0315B1B6FBF3F301E0B4FBF3F30C68DB
:105C40000968C4F388146343C1F30141491C490046
:105C5000B3FBF1F1016011680F2303EA11117B4BD3
:105C60005C5C0168E14041601468072505EA942402
:105C70001C5D21FA04F48460126805EA52329A5CD1
:105C8000D140C16070BDC0F30121032908D1684A29
:105C90000832116821F4F8136D490140194311606D
:105CA000634970310A68C0F30B0002430A60704711
:105CB000634944390860704761494039086070475A
:105CC0005E49C1F85C017047594A303200291168B9
:105CD00001D0014300E0814311607047544A3432DF
:105CE0000029116801D0014300E081431160704731
:105CF0004F4A38320029116801D0014300E0814346
:105D0000116070474A4A40320029116801D00143AE
:105D100000E0814311607047454A44320029116810
:105D200001D0014300E0814311607047404A1032C6
:105D30000029116801D0014300E0814311607047E0
:105D40003B4A14320029116801D0014300E081432D
:105D500011607047364A18320029116801D001439A
:105D600000E0814311607047314A203200291168F8
:105D700001D0014300E08143116070472C4A243276
:105D80000029116801D0014300E081431160704790
:105D9000274A50320029116801D0014300E08143B5
:105DA00011607047224A54320029116801D0014322
:105DB00000E08143116070471D4A58320029116884
:105DC00001D0014300E0814311607047184A6032FE
:105DD0000029116801D0014300E081431160704740
:105DE000134A64320029116801D0014300E0814365
:105DF000116070470E4A0D320029117801D001431D
:105E000000E081431170704709487430016841F027
:105E10008071016070470146054A00200C3212680B
:105E20000A4200D00120704701490E3108707047C6
:105E300000380240FFFFF6FE103000240000474209
:105E4000800E47420000FFFF0024F40034000020D1
:105E5000FFFCFF0FFE4910B5884206D1012108461C
:105E6000FFF78CFF002101205BE0B0F1804F09D0EB
:105E7000F84988420DD101210220FFF775FF00216A
:105E8000022070E001210846FFF76EFF002101208B
:105E900069E0F149884206D101210420FFF764FF3F
:105EA000002104205FE0ED49884206D1012108204D
:105EB000FFF75AFF0021082055E0E949884206D142
:105EC00001211020FFF750FF002110204BE0E54991
:105ED000884206D101212020FFF746FF0021202023
:105EE00041E0E149884206D101210220FFF746FF47
:105EF0000021022015E0DD49884202D101210C0475
:105F00000AE0DB49884202D101214C0404E0D9496E
:105F100088420AD101218C042046FFF72FFF00217F
:105F20002046BDE81040FFF729BFD349884206D17B
:105F300001214020FFF718FF0021402013E0CF4946
:105F4000884206D101218020FFF70EFF002180202A
:105F500009E0CB4988420AD1841501212046FFF788
:105F600003FF00212046BDE81040FFF7FDBE10BD35
:105F700030B50288B64BBC4C98420DD0A0420BD035
:105F8000B0F1804F08D0B34DA84205D0B24DA84221
:105F900002D0B24DA84203D122F070054A882A43AC
:105FA000AF4DA84206D0AF4DA84203D022F44075B1
:105FB0000A892A4302804A68C2620A880285984296
:105FC00001D0A04201D1897A01860121818230BDB0
:105FD0004FF0FF31416000210180018141808172D9
:105FE0007047018582827047028822F070020A435E
:105FF0000280704741627047C1627047406A7047D3
:10600000008D70470029018802D041F0020101E0B3
:1060100021F00201018070470029018802D041F07F
:10602000040101E021F0040101807047002901888A
:1060300002D041F0800101E021F080010180704731
:10604000028822F00802028002880A430280704718
:10605000028822F44072028002880A43028070475C
:106060000029018802D041F0010101E021F0010185
:106070000180704730B5028C22F001020284028C4C
:106080008388048B22F0020224F073050C882C43D1
:106090008D8915434A882A436D4DA84202D0724D1E
:1060A000A8420DD122F00805CA8923F440732A437F
:1060B00022F004058A882A430D8A1D434B8A2B430C
:1060C0008380048389684163028430BD70B5028C8B
:1060D00022F010020284028C8488038B0D8823F442
:1060E000E6464FF6FF7303EA052535438E8922F015
:1060F000200203EA061616434A8803EA02123243D4
:10610000534EB04202D0584EB04215D122F0800614
:10611000CA8924F4406403EA0212324322F04006A2
:106120008A8803EA021232430E8A03EA860626436D
:106130004C8A03EA8404344384800583896881633C
:10614000028470BD70B5028C22F480720284028CCD
:106150008488838B0D8823F073031D4322F400731E
:106160008E894FF6FF7202EA06261E434B8802EA2A
:1061700003233343364EB04202D03B4EB04215D1DA
:1061800023F40066CB8924F4405402EA032333430A
:1061900023F480668B8802EA032333430E8A02EAE3
:1061A000061626434C8A02EA04143443848085830D
:1061B0008968C163038470BD70B5028C22F480527B
:1061C0000284048C8288838B0D8823F4E6464FF684
:1061D000FF7303EA0525354324F400568C8903EA4E
:1061E000043434434E8803EA06362643184CA04252
:1061F00002D01D4CA04205D122F480440A8A03EA51
:10620000821222438280858389680164068470BD7E
:10621000002101804180818081608181C181018272
:106220004182704730B50124058C00F118038C4081
:10623000A543058431B308292CD0091FC1F34E00B2
:106240001844016848F6FF731940016001681AE0BC
:10625000000001400004004000080040000C004025
:1062600000100040001400400004014000400140C4
:10627000004401400048014000180040001C00405C
:106280000020004006E04FF6FF7303EA02221143AC
:10629000016030BD03EB510001684FF68F73194068
:1062A00001600168F3E74163704781637047C16330
:1062B000704701647047028B22F070020A43028328
:1062C0007047028B4FF6FF7322F4E04203EA01218C
:1062D000114301837047828B22F070020A4382834C
:1062E0007047828B4FF6FF7322F4E04203EA0121EC
:1062F000114381837047028B22F008020A43028314
:106300007047028B4FF6FF7322F4006203EA01210B
:10631000114301837047828B22F008020A43828373
:106320007047828B4FF6FF7322F4006203EA01216B
:10633000114381837047028B22F004020A430283D7
:106340007047028B4FF6FF7322F4806203EA01214B
:10635000114301837047828B22F004020A43828337
:106360007047828B4FF6FF7322F4806203EA0121AB
:10637000114381837047028B22F080020A4302831B
:106380007047028B4FF6FF73C2F30E0203EA01213E
:10639000114301837047828B22F080020A4382837B
:1063A0007047828B4FF6FF73C2F30E0203EA01219E
:1063B000114381837047028C22F002020A43028457
:1063C0007047028C22F008020A4302847047028C54
:1063D0004FF6FF7322F0200203EA011111430184FA
:1063E0007047028C4FF6FF7322F0800203EA01111E
:1063F000114301847047028C4FF6FF7322F4007240
:1064000003EA0121114301847047028C4FF6FF73A8
:1064100022F4006203EA0121114301847047028CD7
:106420004FF6FF7322F4005203EA01311143018455
:10643000704710B50123048C8B409C430484038C6B
:106440008A401343038410BD10B50423048C8B4091
:106450009C430484038C8A401343038410BD828BC5
:1064600022F440628283828B4FF6FF7303EA01219C
:106470000A4382837047828B22F00C028283828BD4
:106480000A4382837047028B22F440620283028BAC
:106490004FF6FF7303EA01210A4302837047F0B508
:1064A000048C24F010040484078B068C4FF6FF74D0
:1064B00004EA011527F4734704EA0331394304EA77
:1064C00002220A4326F0A001294341F01001028371
:1064D0000184F0BD028B22F00C020283028B0A437E
:1064E000028370472DE9F0410D460E884988AA883D
:1064F0002B8904460EB3042E26D0082E268C4FF688
:10650000FF7028D026F480562684A78B268C00EABC
:10651000022200EA013127F473473A4300EA0330CC
:10652000104326F420420A4342F48051A083218480
:10653000E9882046BDE8F04191E700F062F9E9887A
:106540002046BDE8F041C5E7FFF7A9FFE9882046EE
:10655000BDE8F04197E726F480762684A78B268C49
:1065600000EA012100EA0310104327F0F307384343
:1065700026F420620A4342F48071A0832184E988D2
:106580002046BDE8F04176E70021018041800122EC
:106590008280C180018170472DE9F0410C460026C0
:1065A00049880746012501B90226A288012A00D19F
:1065B0000225208823890028384610D0FFF76FFF76
:1065C000E1883846FFF75FFF23892A46314638467F
:1065D00000F017F9E1883846BDE8F0417AE700F0AD
:1065E00010F9E1883846FFF775FF23892A463146BE
:1065F0003846FFF754FFE1883846BDE8F04142E7EE
:10660000406B7047806B7047C06B7047006C704781
:1066100010B50A884B88CC881A438B8823431A43C9
:106620000B891A434B8989891A430A43A0F84420ED
:1066300010BD0021018041808180C18001814181A4
:1066400081817047002930F8441F02D041F4004195
:1066500001E0C1F30E01018070470029818802D05A
:1066600041F0040101E021F004018180704700291C
:10667000818802D041F0010101E021F00101818017
:106680007047002A828901D00A4300E08A43828150
:1066900070478182704702460020128A0A4200D069
:1066A00001207047C9430182704702460020138AC7
:1066B00092890B4202EA010202D0002A00D0012096
:1066C0007047C943018270471143A0F848107047D2
:1066D000002A828901D00A4300E08A438281704700
:1066E0000029818802D041F0080101E021F0080171
:1066F00081807047018921F007010181704702897B
:1067000022F070020A430281704700B50346FFF78A
:10671000F6FF188940F00700188100BD70B51646D5
:106720000D46602904464FF0010231460AD000F0C0
:1067300068F829462046FFF7E2FF208940F007006D
:10674000208170BDFFF7ABFEF3E730B504894FF64B
:10675000FF7505EA03231343E4B20B43234303818C
:1067600030BD10B50446FFF7F0FF208940F07700F8
:10677000208110BD10B50446FFF7E7FF208940F4E3
:106780008040208110BD828822F070028280828841
:106790000A4382807047028922F00702028102893F
:1067A0000A4302817047028922F080020281028935
:1067B0000A430281704770B50589048B068C25F069
:1067C00007050D434FF6FC410C4040F201110C430C
:1067D0004FF6FF7101EA031126F0220611433143FF
:1067E00005810483018470BD0029818802D041F0B5
:1067F000800101E021F0800181807047A0F85010F5
:10680000704770B5048C24F001040484058B048C5B
:106810004FF6FF7606EA0313134325F0F3052B43E7
:1068200024F00A020A4342F001010383018470BD8F
:10683000C74910B5884206D101211020FFF79EFA02
:106840000021102028E0C349884202D101214C04D4
:1068500010E0C149884202D101218C040AE0BF49FD
:10686000884202D10121CC0404E0BD4988420AD10A
:1068700001210C052046FFF777FA2046BDE81040BD
:106880000021FFF771BAB749884209D101212020C0
:10689000FFF774FA00212020BDE81040FFF76EBA20
:1068A00010BD7FB50446008A0D4620F44051E888AB
:1068B00008432082A08941F20C618843A9882A8973
:1068C00011436A8902431143A181A08A20F44071D7
:1068D000A8890843A0826846FFF792F99C48844241
:1068E00002D0A048844201D1039800E00298A18917
:1068F000090400EBC00101EB0010296801D5490033
:1069000000E08900B0FBF1F26420B2FBF0F1090174
:106910000B096FF018056B4302EB8302A3891D047A
:106920004FF0320306D503EBC202B2FBF0F000F0E9
:10693000070005E003EB0212B2FBF0F000F00F00DD
:10694000084320817FBD4FF41651016000218180F2
:10695000C18001810C2242818181704710B5028A79
:106960004C8822F470630A8822438C88C9880C43BF
:1069700022431A43028210BD0021018041808180A0
:10698000C18070470029818902D041F4005101E0A3
:1069900021F4005181817047028B02F47F4202830F
:1069A000028B0A43028370470029818902D041F497
:1069B000004101E0C1F30E01818170470029818A05
:1069C00002D041F4006101E021F40061818270474E
:1069D000C1F30801818070478088C0F308007047C8
:1069E000028A22F00F020282028A0A430282704760
:1069F0000029818902D041F0020101E021F0020169
:106A000081817047828922F40062828182890A43EF
:106A100082817047028A22F020020282028A0A439F
:106A2000028270470029018A02D041F4804101E0CE
:106A300021F4804101827047818941F00101818107
:106A400070470029818A02D041F0080101E021F05D
:106A5000080181827047028BD2B20283028B42EA24
:106A60000121018370470029818A02D041F0200171
:106A700001E021F02001818270470029818A02D043
:106A800041F0100101E021F0100181827047828AFB
:106A900022F004028282828A0A438282704700299D
:106AA000818A02D041F0020101E021F002018182DD
:106AB0007047002A828A01D00A4300E08A4382821A
:106AC000704710B5C1F3421301F01F040121A1402A
:106AD000012B07D0022B07D01430002A026805D002
:106AE0000A4304E00C30F8E71030F6E78A4302600E
:106AF00010BD0246002012880A4200D001207047D3
:106B0000C9430180704730B501F01F020124002500
:106B1000C1F3421304FA02F2012B0FD0022B0FD063
:106B2000838A4FEA11210088134204FA01F400EA33
:106B3000040001D000B10125284630BD8389F0E76B
:106B4000038AEEE70A0A01219140C9430180704798
:106B5000001001400044004000480040004C00404C
:106B60000050004000140140A74910B588420AD1E6
:106B7000841401212046FFF701F92046BDE81040AA
:106B80000021FFF7FBB8A149884202D1012104147A
:106B900004E09F4988420AD10121C4132046FFF72F
:106BA000E3F82046BDE810400021FFF7DDB810BD36
:106BB00030B502884C8802F441530A88CD882243BC
:106BC0008C882C4322430C8922434C8922438C8994
:106BD0002243CC8922431A430280828B22F4006232
:106BE0008283098A018230BDF0B502220023858BA1
:106BF00001244FF24006354085830284858B8E68E0
:106C0000022E3ED08A8802B10224824A13681B02F7
:106C100003D5136823F4000313607E4A7C321368A3
:106C20001268C3F388137B4EC2F30272361F3668B4
:106C3000794F06F03F06B7FBF6F65E43B6FBF2F27D
:106C4000CB88B3F5007F2CD06301B2FBF3F200BF19
:106C500002EB82028B685200B2FBF3F2521D92B239
:106C60000A23B2FBF3F202F00103D21A4FF6FF74CB
:106C7000C2F34F0204EA0323941EFE2C01D3022226
:106C80000023CC881A43144304840A884B881A438F
:106C90008B8889890B431A432A4342F4006181831C
:106CA000F0BD120AD4E70021018041808180C180BB
:106CB000018141818181C1810721018270470021C9
:106CC000018041808180C180022282608181704781
:106CD0000029018802D041F0400101E021F040018B
:106CE000018070470029818B02D041F4806101E06E
:106CF00021F4806181837047028822F4006202805F
:106D000002880A4302807047B1F5804F018803D0A2
:106D100021F480410180704741F48041FAE7A1F5F8
:106D20007E420188FF3A02D041F4807101E021F4F3
:106D30008071018070470029818802D041F00401F0
:106D400001E021F00401818070470029818802D090
:106D500041F0100101E021F010018180704780892D
:106D60007047818170470029018802D041F40051A9
:106D700001E021F4005101807047018841F4805105
:106D800001807047012901D0008B7047808A7047CD
:106D9000008A7047002A828801D00A4300E08A43B3
:106DA00082807047090901238B40002A828899B2AA
:106DB00001D00A4300E08A438280704702460020E7
:106DC00012890A4200D001207047C94301817047EF
:106DD00010B501F00F040122034602FA04F400206A
:106DE00009098A4091B29A88A4B20A4019892142BD
:106DF00002D0002A00D0012010BD01F00F020121B5
:106E00009140C94301817047003001400038004083
:106E1000003C00400838024000127A0010B5012101
:106E20000C022046FEF7AAFF2046BDE810400021D4
:106E3000FEF7A4BF30B54268C84B0C791A400B6806
:106E400042EA0422134343608268C54B4D791A40DD
:106E5000D1E9034323438C6844EA450423431343A5
:106E60008360C26A097D22F47002491EC9B242EAF7
:106E70000151C16230BD0021016001714171816029
:106E8000C1600161012101757047B64B10B5D3F89F
:106E90000423B5490A40D0E900142143D0E9024057
:106EA000044321431143C3F8041310BD00210160C2
:106EB00041608160C16070470029816802D041F063
:106EC000010101E021F00101816070474268A74B98
:106ED0001A400A43426070474162826270474268CA
:106EE00022F01F020A43426070479E490028D1F8F1
:106EF000040302D040F4000001E020F40000C1F8D7
:106F00000403704797490028D1F8040302D040F4E5
:106F1000800001E020F48000C1F80403704770B5E0
:106F2000072409290AD9C568A1F10A0606EB460615
:106F3000B440A543B3401D43C56007E0056901EBBC
:106F40004106B440A543B3401D4305611F23072AF2
:106F500009D2446B521E02EB820293409C43914043
:106F60000C43446370BD0D2A09D2046BD21F02EB9F
:106F7000820293409C4391400C43046370BDC46AF9
:106F80000D3A02EB820293409C4391400C43C46251
:106F900070BD816841F080418160704701460020EA
:106FA0008968490200D5012070470029816802D014
:106FB00041F4806101E021F4806181607047002923
:106FC000816802D041F0020101E021F002018160FC
:106FD00070474268491E22F4604242EA41314160F2
:106FE00070470029416802D041F4006101E021F4BA
:106FF000006141607047C06C80B270475948D0F85A
:10700000080370470029816802D041F4807101E0D3
:1070100021F48071816070470029816802D041F4B9
:10702000007101E021F40071816070474D49002832
:10703000D1F8040302D040F4005001E020F40050E5
:10704000C1F80403704770B5072409290AD9C56837
:10705000A1F10A0606EB4606B440A543B3401D4322
:10706000C56007E0056901EB4106B440A543B340A4
:107070001D430561836BC3F30154121B921C02EB89
:1070800082041F22A2409343A1400B43836370BD3F
:10709000826B491E22F4401242EA0151816370471B
:1070A00008B508440090026008BD826822F470228E
:1070B0000A4382607047826822F440120A43826069
:1070C0007047816841F4800181607047014600206B
:1070D0008968490200D5012070470029416802D023
:1070E00041F4806101E021F4806141607047002932
:1070F000416802D041F4805101E021F480514160A7
:10710000704708B5084428300090006880B208BD78
:1071100001238B4041680AB1194300E09943416063
:1071200070470246002012680A4200D001207047D2
:10713000C9430160704730B50246002053680C0A0D
:1071400001258D4011682B40214202D0002B00D038
:10715000012030BD6FEA112101607047FFFEFFFC86
:10716000FDF7FFC000200140E030FCFFFFFD3FFFC6
:10717000FE4910B588424FF0010101D14C0601E0F3
:107180004FF080642046FEF7EFFD2046BDE810403A
:107190000021FEF7E9BD10B50368002223F00203C9
:1071A0000360036843F0010303604FF6FF7300E0E0
:1071B000521C4468E40701D19A42F9D14268D207CF
:1071C0003ED08A79012A02683CD022F08002026017
:1071D000CA79012A026838D022F0400202600A7A95
:1071E000012A026834D022F0200202604A7A012A81
:1071F000026830D022F0100202608A7A012A026806
:107200002CD022F008020260CA7A012A026828D033
:1072100022F0040202608A78CC78920742EA046283
:107220000C7942EA04424C79098842EA0452491E28
:107230000A43C261016821F001010160002114E0EC
:10724000002010BD42F08002C1E742F04002C5E7D5
:1072500042F02002C9E742F01002CDE742F00802F6
:10726000D1E742F00402D5E7491C4268D20701D0B9
:107270009942F9D14068C007E2D1012010BDF0B5B4
:10728000827A01219140BA4A136843F001031360E6
:10729000B74B1C331C688C431C60B54D067BB54C4A
:1072A0000C35A6B92E688E432E604688C78846EAFC
:1072B0000746877A04EBC707C7F8406606888788C1
:1072C00046EA0746877A04EBC707C7F84466067B99
:1072D000012E12D12E680E432E60867A056804EBCB
:1072E000C6064FEA3545C6F84056867A456804EB2F
:1072F000C6044FEA3545C4F844569D4CC57A241D52
:10730000002D256806D00D432560994C058914345D
:1073100015B104E08D43F7E725688D4325600589A5
:10732000012D02D125680D432560407B012802D143
:10733000186808431860106820F001001060F0BD64
:1073400000218171C171017241728172C1728170BB
:10735000C170032101710221417101210180704737
:1073600083490A6842F001020A600A6843F60E7314
:107370009A430A600A6842EA00200860086820F020
:107380000100086070470029016802D041F4803193
:1073900001E021F48031016070470029016813D0B9
:1073A00041F080010160D0F8841141F48071C0F88F
:1073B0008411D0F8941141F48071C0F89411D0F880
:1073C000A41141F4807112E021F080010160D0F835
:1073D000841121F48071C0F88411D0F8941121F443
:1073E0008071C0F89411D0F8A41121F48071C0F814
:1073F000A411704730B50246002093685B0108D4A1
:107400009068000101D5012003E09068C00037D5E5
:10741000022002EB0012D2F8803103F00103C2F81F
:1074200080310B7A73B3D2F880414D681C434B7A9C
:1074300043EAC5031C43C2F880418B7A03F00F0373
:107440008B72D2F8843123F00F03C2F88431D2F862
:1074500084318C7A2343C2F88431CB7ACC6843EAF6
:107460000423C2F88831CB7B096943EA0121C2F8C1
:107470008C11D2F8801141F00101C2F8801130BDA9
:10748000042030BDD2F880314C7A23430C8843EA83
:107490004453C2F88031D0E7002221B1012905D040
:1074A000022906D112E08268334801E0826833483D
:1074B00002403349501A8A4214D00ADCA2B16FF05C
:1074C000806010180FD002280CD10FE082682D4880
:1074D000EEE7B0F5007F09D02B49401803D0B0F596
:1074E000003F03D000207047022070470120704702
:1074F00041B101290AD0022903D1816841F4000178
:1075000081607047816841F08001F9E7816841F44A
:107510000041F5E710B500EB0113D3F8B04114F0CA
:1075200004041472D3F8B04145D0E408C2F8044012
:10753000D3F8B04104F002045472D3F8B44104F01B
:107540000F049472D3F8B441240AD474D3F8B84128
:10755000D472D3F8B841240A1473D3F8B841240C78
:107560005473D3F8B841240E94730FE000640040C4
:1075700000660040006000400300000400030008B3
:1075800000010008000003100001FFF7D3F8BC4120
:10759000D473D3F8BC41240A1474D3F8BC41240C2E
:1075A0005474D3F8BC311B0E937439B1016941F0A6
:1075B0002001016110BD640D1460B9E7C16841F09C
:1075C0002001C16010BD21B1016941F020010161BC
:1075D0007047C16841F02001C16070470246002039
:1075E00029B1012902D1106900F003007047D06869
:1075F000FAE700234FF6FF7221B1012917D00229C3
:1076000024D03AE0016821F0020141F0010101605B
:1076100000E0521E416801F00301012901D0002A57
:10762000F7D1406800F00300012823D124E001686D
:1076300021F00301016000E0521E4168890701D07A
:10764000002AF9D14068800714D115E0016821F0C3
:10765000010141F00201016000E0521E416801F0A9
:107660000301022901D0002AF7D1406800F003008D
:10767000022801D0002300E0012318467047026869
:10768000002122F0010242F002020260406800F094
:107690000300022800D101210846704703684FF615
:1076A000FF71002223F00203036000E0491E4368DB
:1076B0009B0701D50029F9D14068800700D4012239
:1076C000104670478069C0F302100001704780695E
:1076D000000E70478069C0F307407047002A426976
:1076E00001D00A4300E08A4342617047024600200D
:1076F00011F4700F03D0926904E001207047CB01B0
:1077000004D552680A401103F7D170470B0101D527
:107710009268F7E78B0101D5D268F3E71269F1E7C8
:10772000534A914202D1002181617047C1F3130293
:107730008B0101D5C26070474B0101D502617047D2
:10774000090101D5826070474260704702460020FF
:1077500053690B424AD0B1F5807F3BD013DC082936
:107760002ED007DC012926D0022927D004293DD1BB
:10777000D0682BE0102925D0202926D0402935D1EA
:107780001069102130E0B1F5004F2BD00BDCB1F5C2
:10779000007F22D0B1F5806F22D0B1F5006F25D1E6
:1077A0009069702120E0B1F5803F11D0B1F5003F24
:1077B0001CD15068E5E790682E4915E0D06802E0DA
:1077C000D068DEE7106903210EE0106908210BE0A4
:1077D0005068FBE79069012106E09069022103E00F
:1077E000906900E05068042100F03BB8704730B564
:1077F000082310240422B1F5007F1DD010DC2029BD
:1078000029D007DC012921D0042922D0082900D160
:10781000C46030BD402920D0B1F5807FF9D10BE0A4
:107820000025B1F5004F06D008DCB1F5806F03D01C
:10783000B1F5006FEDD18561426030BDB1F5803F9B
:107840000DD0B1F5003FF8D1446030BD09498160E9
:1078500030BDC36030BD036130BD046130BD4360E5
:1078600030BD024600200A4200D0012070470000CF
:107870007000F03001010100DF4908707047DE49F7
:107880000028086802D040F4807001E020F4807085
:1078900008607047D8490028086802D040F400709A
:1078A00001E020F4007008607047D34900280868A0
:1078B00002D040F4806001E020F4806008607047EE
:1078C000CD48016841F4006101607047CA48016811
:1078D00041F4805101607047C748103000680028AB
:1078E00005DAC548C549001D0160C54901607047FA
:1078F000C1481030016841F0004101607047BE4945
:1079000008200C310A68D20301D5012070470A68AB
:10791000D20601D5052070470A6812F0EF0F01D09A
:107920000620704709688907FBD50720704708B50E
:1079300008208DF8000000BFFFF7E1FF8DF8000080
:107940009DF800000128F7D09DF8000008BD70B533
:107950000646002529B1012928D0022929D04FF453
:107960004075FFF7E4FF08281FD1A34C10342068AE
:1079700020F440702060206828432060206820F0B8
:10798000F8002060206846F002010843206020686B
:1079900040F480302060FFF7CAFF216821F0020127
:1079A0002160216821F0F801216070BD4FF48075DD
:1079B000D7E74FF40075D4E730B504460025FFF74C
:1079C000B6FF2CB1012C1DD0022C1ED04FF44075F7
:1079D000082816D1884C1034206820F440702060AC
:1079E000206828432060206840F004002060206860
:1079F00040F480302060FFF79AFF216821F00401F5
:107A0000216030BD4FF48075E2E74FF40075DFE789
:107A1000F0B515461E460746FFF789FF082815D121
:107A2000754C1034206820F440702060206840F4C9
:107A300040702060206840F0010020603D607E6062
:107A4000FFF775FF216821F001012160F0BD70B5DD
:107A50000D460646FFF76BFF082814D1664C10341C
:107A6000206820F440702060206840F4007020609E
:107A7000206840F0010020603560FFF758FF216862
:107A800021F00101216070BD70B50D460646FFF77B
:107A90004EFF082814D1584C1034206820F4407050
:107AA0002060206840F480702060206840F0010071
:107AB00020603580FFF73BFF216821F00101216044
:107AC00070BD70B50D460646FFF731FF082812D18C
:107AD000494C1034206820F44070206020682060F9
:107AE000206840F0010020603570FFF720FF21681A
:107AF00021F00101216070BD3F4814300068C007CB
:107B000005D03D483F49083001603F49016070475A
:107B100039481430016841F001010160704730B507
:107B20000D460446FFF703FF082807D132481630F8
:107B300001880DB1A14300E02143018030BD10B5A3
:107B40000446FFF7F4FE082802D12B4815300470D4
:107B500010BD70B515460C460646FFF7E8FE08282E
:107B600008D125491431087800F00F0004432C4354
:107B700034430C7070BD204914310A7822F00C0295
:107B80000A700A7802430A7070471B481430017863
:107B900041F002010170CAE6174814300068C0F3D2
:107BA000471070471448163000887047124900206B
:107BB00015310978AA2900D0012070470E481430E9
:107BC000007800F00C0070470B4A10320029116851
:107BD00001D0014300E08143116070470146064A2D
:107BE00000200C3212680A4200D00120704702497E
:107BF0000C31086070470000003C024023016745DB
:107C0000AB89EFCD3B2A19087F6E5D4C2DE9F0431F
:107C1000016821F001010160002101604160816083
:107C2000C160016121214161B849B84A3D2510393F
:107C3000904202D18D60BDE8F083B44A4FF474667F
:107C40001832904201D18E60F5E7B04A4FF47417B4
:107C50003032904201D18F60EDE7AC4A4FF0746C46
:107C60004832904202D1C1F808C0E4E7A74BA84AC5
:107C70006033984201D1CA60DDE7A44CA54B78344B
:107C8000A04201D1CB60D6E7DFF88082A24C08F198
:107C90009008404501D1CC60CDE7DFF870824FF00D
:107CA0003D5908F1A808404502D1C1F80C90C2E73F
:107CB0009A49DFF868820839404501D10D60BAE77A
:107CC000964D1835A84201D10E60B4E7934D30357A
:107CD000A84201D10F60AEE7904D4835A84202D1CD
:107CE000C1F800C0A7E78D4D8C496035091FA84237
:107CF00001D10A609FE7894A7832904201D10B6036
:107D000099E7864A9032904201D10C6093E7834A0A
:107D1000A83290428FD1C1F800908CE730B503684B
:107D20007F4ACC6813400A682243D1E905452C43B9
:107D30002243CC6922430C6A22434C6A22438C6A58
:107D400022434C6B22438C6B22431A4302604269EC
:107D500022F00703D1E90B2422431A4342610A6946
:107D600042604A6882608968C16030BD002101605C
:107D700041608160C160016141618161C1610162F5
:107D800041628162C162016341638163704700297E
:107D9000016802D041F0010101E021F00101016020
:107DA00070470029016802D041F4004101E021F44C
:107DB0000041016070470029016802D041F02001B4
:107DC00001E021F020010160704741607047406888
:107DD00080B27047002A026802D042F4002201E01B
:107DE00022F400220260016170470029016802D07C
:107DF00041F4802101E021F48021016070470AB143
:107E000001617047C160704701460020096809039D
:107E100000D501207047014600200968C90700D03D
:107E200001207047406900F03800704702463B4B24
:107E300000209A4202D2354A103A01E0374A103AFD
:107E40008B0001D5526800E01268364B1A400A4296
:107E500000D001207047314A904202D22B4810389E
:107E600001E02E4810382F4A8B0001EA020101D5AB
:107E7000C1607047816070470B0607D5436912B136
:107E800043F0800301E023F080034361802908D0A0
:107E9000002A026801F01E0101D00A4300E08A4373
:107EA0000260704730B51D4A0024904202D2174B41
:107EB000103B01E0194B103B1B4A114205D01E221A
:107EC00002EAD12502682A4002E0406900F08002FF
:107ED000880001D5586800E01868124B1840084225
:107EE00001D002B10124204630BD0C4A904202D29A
:107EF0000648103801E0094810380A4A8B0001EAA8
:107F0000020101D5C1607047816070471060024076
:107F10003D000020400F002000003D201064024082
:107F20003F801CF07D0F7D0F3C0F3C0F30B50022D1
:107F300008E08B1A0344855C13F8014D1D708454CE
:107F4000521C92B2B2EB510FF3D330BD2DE9F04188
:107F50000E460C46010AC7B21546052000F0EBF8A4
:107F60003946062003E000BF15F8011B042000F08D
:107F7000E2F8641EE4B2F7D23046BDE8F0812DE9A4
:107F8000F0410F4606461446012901D000252BE09A
:107F9000C5B2310A052000F0CEF822462946072056
:107FA00000F0C9F9FF2803D0C00701D00120E4E7A1
:107FB0000020E2E77019C11700EB116100F0FF0823
:107FC000C1F30721052000F0B6F82246641C4146A3
:107FD000072000F0B0F9FF2801D0C10703D1FF2826
:107FE00004D0C00702D06D1CBD42E3DB2846C4E7C5
:107FF00070B515460C000CD0FFF7C1FFA04202D0AF
:108000004FF0FF3070BD012C05D021462846FFF708
:108010008DFF204670BD012070BD2DE9F0410F4657
:10802000114931F8206001EB80008578AA4201D225
:108030000020A2E7002408E030193A1980B201219B
:10804000FFF79DFF012802D1641CAC42F4DB2046FF
:1080500093E7054A32F8203002EB80000A46807828
:108060000146184672E7000044000020FDF769BA97
:10807000FDF764BA38B500240094BDF8022060F31F
:108080000F3261F30B12ADF80220684600F0B6F92A
:10809000684600F098F9BDF80200C10B44EAC171CE
:1080A000C0F3803241EA8271C0F3403241EA42714A
:1080B000C0F3003241EA0271C0F3C02241EAC2615A
:1080C000C0F3802241EA8261C0F3402241EA42616A
:1080D000C0F3002241EA0261C0F3C00241EAC2518A
:1080E000C0F3C01241EA8251C0F3801241EA42510A
:1080F000C0F3401241EA0251C0F3800241EAC2419A
:10810000C0F3001241EA8241C0F3400241EA424119
:1081100000F0010041EA0041BDF800006FF30E00DD
:10812000084338BD10B5FDF709FABDE8104000EB73
:108130008000FDF711BA10B5FFF79CFF0021FDF795
:10814000DEF9012803D0FFF7EDFF64B107E0FDF78A
:10815000D3F9040005D00528F9D1FFF7E3FF00208B
:1081600010BDFFF7DFFF012010BD10B5FFF782FF44
:108170000121FDF7C4F9012803D0FFF7D3FF64B153
:1081800007E0FDF7B9F9040005D00528F9D1FFF79C
:10819000C9FF002010BDFFF7C5FF012010BDF8B5D5
:1081A0000E4605466C460027FDF7C8F900EB800235
:1081B0005FF0010135F81100904201D2024602E061
:1081C000B84200D90746491CC9B21129F2D3B818E0
:1081D000698C40088142218802D941F4004101E0C4
:1081E00021F4004121806A88C90B8242628802D949
:1081F00042F4004201E022F400426280AB888342F4
:1082000002D942F4804201E022F480426280EB888D
:10821000834201D9012300E000234B4063F34D3238
:1082200062802B89834201D9012300E000234B4067
:1082300063F30C3262806B89834201D9012300E031
:1082400000234B4063F3CB226280AB89834201D988
:10825000012300E000234B4063F38A226280EB8914
:10826000834201D9012300E000234B4063F34922FC
:1082700062802B8A834201D9012300E000234B4016
:1082800063F3082262806B8A834201D9012300E0F4
:1082900000234B4063F3C3026280AB8A834201D95F
:1082A000012300E000234B4063F3C7126280EB8A96
:1082B000834201D9012300E000234B4063F386127F
:1082C00062802B8B834201D9012300E000234B40C5
:1082D00063F3451262806B8B834201D9012300E076
:1082E00000234B4063F382026280AB8B834201D94F
:1082F000012300E000234B4063F304126280EB8B08
:10830000834201D9012300E000234B4063F3410283
:1083100062802B8C834201D9012000E0002048407C
:1083200060F300026280BDF8020000093070BDF801
:108330000200000BF8BD30B589B01546FFF79AFE74
:108340000221FDF7DCF8012803D0FFF7EBFE6CB14A
:1083500007E0FDF7D1F8040006D00528F9D1FFF7B2
:10836000E1FEFF2009B030BDFFF7DCFE24216846A6
:1083700004F049FCFDF7E0F80023694600EB8302B6
:1083800030F823409288121B21F813205B1C122B1B
:10839000F4DB29466846FFF702FFE3E710B501204A
:1083A000FDF72EF8FDF747F84FF41670FDF7D4F8F7
:1083B000FDF73CF8BDE810400020FDF721B84FF470
:1083C0007A70FDF7C9B870B545880023C5F30D0173
:1083D0000C461A46CE0701D05B1CDBB2521C490882
:1083E000D2B20E2AF6D3072B07D9E14361F30D056C
:1083F0004580018841F40041018070BD41880B0B2C
:1084000003EB913202EB912202EB112202EBD1122B
:1084100002EB511202EB1112D2073CD041F00101E4
:10842000418089B24B0B03EB913202EB912202EBBC
:10843000512202EBD11202EB911202EB1112D20780
:108440002CD041F00201418089B24B0B03EB9132F9
:1084500002EB113202EBD12202EBD11202EB9112AC
:1084600002EB5112D2071CD041F00401418089B2C5
:108470004B0B03EB913202EB113202EBD12202EBF8
:10848000912202EB512202EB1122D2070CD041F0D3
:1084900008014180704721F00101C1E721F002018C
:1084A000D1E721F00401E1E721F00801F1E72DE92E
:1084B000F0434088C0F38031C0F3003808EB01027C
:1084C000C0F380231A44C0F3002909EB0204C0F36F
:1084D000C0121444C0F3401C6444C0F300173C4471
:1084E0000444E40703D04FF0FF30BDE8F083C0F34D
:1084F000403421445C18C0F3402634441444C0F393
:1085000080152C443C4404EB5004E40702D06FF087
:108510000100EAE74144C0F3C02421440A442A444C
:10852000624402EB9002D20702D06FF00200DCE757
:1085300019443144494401EBD000C007D5D06FF055
:108540000300D2E74088C0F34031C0F30032114449
:10855000C0F3C0221144C0F380221144C0F3402272
:108560001144C0F300221144C0F3C0021144C0F30F
:10857000C0121144C0F380121144C0F340121144E0
:10858000C0F380021144C0F300121144C0F3400252
:10859000114400F001000844C0B2072801D80120AE
:1085A00070470020704738B50C4605466A460221E0
:1085B00041F20670FFF7E3FC02280ED19DF801009E
:1085C0009DF800106A4600EB01202880022141F24C
:1085D0000870FFF7D4FC022801D0002038BD9DF8B8
:1085E00001009DF8001000EB01202080012038BD23
:1085F00010B50C460246022141F20270FFF7F8FC6A
:10860000022807D1224602214FF4B850FFF7F0FCB0
:10861000022801D0002010BD012010BDFFF726BDAB
:10862000FFF726BD08B5022269461020FFF7F5FCCA
:10863000022802D04FF6FF7008BD9DF801009DF89A
:10864000001000EB012080B208BD38B50446000AD6
:108650008DF800000D468DF8014069461020FFF7A7
:10866000F8FC15B100F00EF838BDFFF7DBFFA042B3
:1086700001D0002038BD022038BD00F5805080B206
:10868000FFF77DBCF8B5012269461220FFF7C5FC53
:1086900001284ED19DF80000F0BB03208DF80000AA
:1086A00069460420FFF7D5FC234C002526460A2204
:1086B00035607560358121461420FFF7AEFC022835
:1086C00007DBC0B22118C0F10A00C2B21320FFF7C5
:1086D000A4FC01208DF8000069461120FFF7B9FCC9
:1086E000002440F60577321901213846FFF72EFCA9
:1086F000641C0A2CF7D3002640F2E73401226946B5
:108700000320FFF78AFC012802D19DF8000070B118
:10871000201EA4F1010400E00BE0EFDC8DF8005016
:1087200069460420FFF795FC1EB10220F8BD012622
:10873000F4E70020F8BD0000E404002010B5002498
:1087400087210820FFF711FD01280AD08621082083
:10875000FFF70BFD01280AD0641C032CF0DBFF207F
:1087600010BD85210820FFF7E6FC012010BD842103
:108770000820FFF7E0FC002010BDF44A10B5138973
:108780009BB2A3F53064013C06D0F14B9360C2E983
:10879000040100201070D060906810BDEB4A10B545
:1087A00013899BB2A3F53064013C06D0E94B93607A
:1087B000C2E9060100201070D060906810BDE34A45
:1087C00010B513899BB2A3F53064013C0BD04E2940
:1087D00002D2E148906006E0DF49891E9160106294
:1087E00000201070D060906810BDD84A10B5138971
:1087F0009BB2A3F53064013C06D0D84B9360C2E92C
:10880000090100201070D060906810BDCF490A891E
:1088100092B2A2F53063013B05D0D14A8A60C862AA
:1088200000200870C86088687047F0B5C74CDDE963
:1088300005562789BFB2A7F5306CBCF1010C23D0D7
:10884000162903D3162B01D30A2E02D2C548A060E5
:108850001AE0C449891EA160C34900264FEA0603F5
:10886000CE708E704E700E70C3F11607074401EB88
:10887000030C17F8017C5B1C8CF80470162BF3DBDF
:10888000C4E90C252670E660A068F0BD30B5AF4B9A
:108890001C89A4B2A4F53065013D0CD00A2A02D28D
:1088A000B248986007E0B14A921E9A605880002052
:1088B00099631870D860986830BD30B5A34B1C8997
:1088C000A4B2A4F53065013D08D049B1A84C9C6024
:1088D000988059700020DA631870D860986830BDAD
:1088E000A348401C986006201870F7E730B5974BF6
:1088F0001C89A4B2A4F53065013D07D09D4C9C6055
:10890000988059700020DA631870D860986830BD7C
:1089100038B58E4C40F60821A068B1EB104F06D157
:1089200000208DF8000069460420FFF792FB924872
:10893000A06038BD2DE9F047844C00252746A0688B
:10894000F9684FEA104C41F202600B183878FA6B64
:108950000626BF88ACF6012C88B04FF0010940F61E
:10896000B83ABCF1090F1BD2DFE80CF0055D97B3F4
:10897000EFEEEDECEB00A1B1012917D0744DAD1C69
:10898000522941D2A1F10201CEB2FFF7D7FE10F079
:10899000FF016F4A4FF009001BD0012926D0A560C6
:1089A000E6E1FFF7FBFC0021082016E1802108200A
:1089B000FFF7C1FBFFF7C2FE10F0FF0001D0012856
:1089C000EED1E0688021401CE0600820FFF7B3FB97
:1089D000CEE1A0EBD601206906F00703C3F107063C
:1089E000455C09FA06F39D4345540BE0A0EBD60322
:1089F000206906F00705C5F10706C15C09FA06F50E
:108A00002943C154A2600CE0CAD102220820616946
:108A1000FFF703FB022801D0A56002E04C48401C90
:108A2000C0E0E0684EE001AA012141F20670FFF7C4
:108A3000A6FA05469DF80400A169000201AA088073
:108A4000012141F20770FFF79AFA0544A0699DF8E9
:108A5000042001881144018001AA012141F208701B
:108A6000FFF78DFA05449DF80400E169000201AAB0
:108A70000880012141F20970FFF781FAE1699DF850
:108A8000043028440A8804281A440A8002D0314855
:108A9000801C54E02F48401C51E04E2915D241F271
:108AA0005F50A0EB010080B203AA4FF00101FFF775
:108AB00066FA012801D0284841E0226AE0689DF862
:108AC0000C101154401CE06052E1FDD12248401EC0
:108AD00035E001AA012141F20270FFF750FA054684
:108AE0009DF80400616A000201AA0880012141F298
:108AF0000370FFF744FA0544606A9DF8042001887A
:108B00001144018001AA01214FF4B850FFF737FA50
:108B100005449DF80400A16A000201AA0880012111
:108B200041F20170FFF72BFA4119A06A9DF8043059
:108B3000042902881A44028020D00848801CA060C2
:108B400016E101E1B0E07DE02EE019E098000020A0
:108B5000010B010A010B020A030B030A010B040AB1
:108B6000010B050A030B060AEE040020030B070A9B
:108B7000010B080A010B090A000B000A7E48DEE718
:108B80000029A1D1022203A91020FFF746FA0228EA
:108B900001D07A48D3E7BDF80C00E16A40BA0880FA
:108BA0007648401EA0603CE7754F06288CD2DFE86F
:108BB00000F0030F1A20263411B1012903D0D7E0A9
:108BC0001321052009E000210620FFF7B4FA14E084
:108BD0001A2905D26B48415C0420FFF7ACFA20E764
:108BE0000220E56094E008208DF80C0003A9032022
:108BF0006EE0012203A903203CE0E56086E06248C4
:108C00001629006B05D2421841F20440084480B294
:108C100009E01621FFF78AF9EFE75B480A29406B64
:108C200008D2421898B20121FFF7A9F90128BAD059
:108C3000A76059E00A21FFF779F95148E5602670ED
:108C4000401E7CE7514F042821D2DFE800F0020BE0
:108C500010216088010A8DF80C108DF80D0003A911
:108C60000D2035E08DF80C9003A9072030E001229B
:108C700003A90720FFF7D1F9012803D19DF80C00C3
:108C80000028BAD0E068401CE0605045D0D86FE0C2
:108C90003D480A29806BC4D30A21FFF747F93B48B6
:108CA000E5602670401E4AE7052861D2DFE800F043
:108CB00003091332410003208DF8000069460420A7
:108CC00006E0380A8DF800008DF8017069460E2024
:108CD000FFF7BFF991E7012201A90320FFF79DF9F2
:108CE000012803D02A48A060267041E09DF80400C6
:108CF000A0BB6078217B401AC0B2082800D90820A8
:108D00008DF8000069460F20FFF7A3F92078401C7A
:108D100020702DE0515C0420FFF70DFAE068401C44
:108D2000E06061788842D5D0400721D12078401E8C
:108D3000EEE78DF8005069460420FFF78AF91448E1
:108D4000E5602670401EFAE678180A4480B20121D8
:108D5000FFF793FC012802D00E48F0E608E0E06837
:108D6000401CE0606178884202D10A48401EE6E675
:108D7000A06808B0BDE8F087020B040A030B050ADF
:108D8000030B060AEE04002098000020030B070ADC
:108D9000030B080A030B090AFCF7A5FA4FF4C0609D
:108DA000FCF70CFD03F0FFFC00F058F8084C00BF86
:108DB00000F04EF82168884205D000F049F82060A4
:108DC000012000F0CBF8022000F0C8F8F0E7000026
:108DD000D80000207FB501210846FCF793FF00244E
:108DE000ADF802400520ADF8000042F20F70ADF87A
:108DF000084001904FF080458DF80A4069462846AA
:108E0000FDF7B6F8012211462846FDF73AFC1C2072
:108E10008DF80C0001218DF80F108DF80D108DF8D4
:108E20000E4003A8FCF7CFFC01212846FDF718F9F6
:108E3000094804607FBD10B501218807FDF741FC9A
:108E4000002000F08BF804480168491C016010BD47
:108E50000148006870470000DC00002010B501F0F8
:108E60009FFBFFF7B7FF00F021F800F0BEF900F01C
:108E70006FFB01F05CFA01F0ECF801F03DFB03F050
:108E80002AFB00F035FD01F016FF02F034F902F084
:108E900078FA02F095FC02F041FD02F0F3FD02F0D9
:108EA000D5FFBDE8104000F081BE00003948002128
:108EB00001604160816070472DE9F0410D46354900
:108EC000174620B1012805D002280AD106E0314E0C
:108ED0000C6806E02F4E4C68361D02E02D4E8C6863
:108EE00008364FF000080CB101260EE0102002F009
:108EF000CBFE38B1C7600560C0E90158306040461C
:108F0000BDE8F081FEE70446761CA0680028FAD18F
:108F1000102002F0B9FEA06028B1C7600560C0E96A
:108F200001583046ECE7FEE710B51A4C20B1012895
:108F300004D0022805D103E0236802E0636800E062
:108F4000A368002B09D0002003E09B68002B04D00D
:108F5000401C8842F9D35A601A6010BD10B50D4903
:108F600020B1012804D0022810D103E00C680DE0E4
:108F70004C680BE08C6809E0616831B12068401EE4
:108F8000206002D12160E0688047A468002CF3D102
:108F900010BD0000E0000020FCF76ABA38B5D74CDD
:108FA000607800280FD16946022001F049FB0028B3
:108FB00009DB0098D24A10210078A0700001FFF769
:108FC00095FC0120607038BD38B5CC4C6078002825
:108FD00014D16946012001F033FB00280EDB009913
:108FE00010220D46C648491C03F074FD2878C44A77
:108FF00000011021FFF761FC0120607038BD3EB513
:10900000BE4C6078002823D102A901F019FB00288A
:109010001EDBBB481622D0380546029903F05AFDE4
:10902000B748B8A17C380A6840F8722F4A68426095
:1090300009890181B2480A210A38CDE900011623C5
:10904000A0F1160219462846FFF7EFFB01206070D9
:109050003EBD10B5A94C6078012870D1FFF76AFCBD
:10906000010CC4E9030180B2A0F530626061013AED
:1090700075D000226270A0F53062033A0AD0A1F6E2
:10908000012109296BD2DFE801F0126A6A6A6A4796
:109090006A535B00052003F000F9032003F0FDF89C
:1090A0000A2003F00EF9BDE81040FCF7DCB9FFF729
:1090B000B9FA2081002003F0F0F8207903F0EDF8F0
:1090C000A088000A03F0E9F8A07903F0E6F8E08848
:1090D000000A03F0E2F88A480A21783803F0C6F85B
:1090E00087484E216E3803F0C1F82089A0F57F41F2
:1090F000FF390FD070B1012003F0CFF80A2003F040
:10910000E0F800220120A169FFF70EFFBDE8104042
:10911000FCF7A4B90020EFE7012003F0BEF878487F
:109120001621203803F0A2F875480A210A380FE00A
:10913000052003F0B2F8012003F0AFF80AE00EE0DA
:10914000032003F0AAF8A07803F0A7F810216C48D8
:1091500003F08CF8BDE810400A2003F0B2B810BD4F
:1091600010B5664C02782178052A10D2DFE802F0AB
:109170000310161C250040782070002807D05F4996
:109180005F480A317838FFF7F8FA0120607010BDA7
:109190000029FCD0411C162200200AE00029F6D04C
:1091A000411C1122012004E00029F0D0411C0122C1
:1091B0000220BDE8104001F0F4B90029E7D00121F8
:1091C00040F2BF10FFF741FA0446052003F065F8AE
:1091D000022C08D05FF0040003F05FF8BDE81040F7
:1091E0000A2003F06EB80220F6E710B5FCF745F947
:1091F000FCF7B9F9FCF70DF9454A00210120FFF70A
:109200005BFE3E4988610420FFF708FA00F01BF876
:1092100040490A2000F0E2FCAFF2C912022101200D
:10922000FFF74AFE3C4A01210220FFF745FE3B4A78
:1092300001210220FFF740FE0121BDE81040384A1D
:109240000220FFF739BE3EB52C4C00220120A16957
:10925000FFF76AFE2A4802A97838FFF78EFA6946B6
:1092600001A800F033F8009840F60235A84202D178
:10927000FCF7F4F803E0A0F5306103390DD01F4985
:10928000891D881EFFF78AFA694601A800F01EF8BA
:109290000098A84204D0642210E0FCF7E4F811E042
:1092A00017484E216E38FFF78AFA694601A800F088
:1092B0000DF80098A84207D04FF496720120A169DA
:1092C000FFF732FE00203EBD01203EBD2DE9F041FA
:1092D0000D46064600244FF47A7740F6013800BF69
:1092E000FFF728FB010C80B23160641C2860BC428F
:1092F00001D84045F4D0BDE8F0810000EC0000202A
:109300000406002053616E5765626273756E00003B
:10931000998F000861910008FF8F0008C98F00082D
:109320009D8F00082DE9FC411646089F0C461D46FE
:10933000804689B23A46FCF777FB8DF8045000204E
:109340008DF806008DF8076001208DF80500009467
:1093500069464046FCF7EAFAA1B23A464046FCF7B5
:1093600063FBBDE8FC814FF40071F748FCF763BB79
:109370004FF48071F448FCF75EBB4FF40041F348B2
:10938000FCF759BB4FF40041F048FCF749BB1428E7
:1093900010D2C0F3C70200F0070301209840C3B207
:1093A000EB48805C1840EA4BDB1E0029995C02D038
:1093B0000143995470478143FBE72DE9F047DFF8FB
:1093C00090A34FF000090125AAF1070ADFF8808376
:1093D0000024072608F10608610606EBC5000C0EFE
:1093E0000C280CD200EB400208EB820758F8220050
:1093F000B98889B2FCF700FB20433C7A4440761ED2
:10940000EAD51AF80510A14203D00AF805404FF03A
:1094100001096D1EDAD54846BDE8F08770B50278BF
:109420002AB1012A12D1451C4E1E00240CE04078BE
:1094300001280BD1BDE8704000F0D9B92819417856
:10944000285DFFF7A4FFA41CB442F7D370BD0178D8
:1094500000290AD14178BE4A8078083A18B1FF2025
:10946000505400F0D1B900205054704710B5B84C9A
:109470004FF400610A3C207840002070B548FCF7AA
:10948000BBFA2178B44A0843207083064FF4805118
:109490000BD0C04380060ED11046FCF7C1FA002065
:1094A0004621BDE8104002F0C5BA1046FCF7BAFAF2
:1094B00000200146F5E710BD2DE9F041A44F00263C
:1094C000FF1EDFF88C8201255FF0000404EBC6006C
:1094D000C30800F0070205FA02F117F803C0CAB288
:1094E00032EA0C021FD0002218F80330C9B20B4038
:1094F000142810D27BB1DFF858C200EB40000CF109
:10950000F60C0CEB80015CF820000B7A89885A403D
:1095100089B2FCF789FA641C082CD7DB761C032E71
:10952000D2DBBDE8F0810122DEE710B5FFF745FF91
:10953000012807D186480221C01F02F097FE0120B2
:1095400002F0BFFEFFF7B8FFBDE8104000F094B98D
:10955000F8B501210846FCF7B7FB01210220FCF712
:10956000B3FB01210420FCF7AFFB01210820FCF72D
:10957000ABFB01211020FCF7A7FB01212020FCF709
:10958000A3FB01214020FCF79FFB0024022223467D
:10959000910270480094FFF7C5FE012502222B4678
:1095A000D1026D480095FFF7BDFE674E01230022F2
:1095B000590230460095FFF7B5FE0123002219023B
:1095C00030460095FFF7AEFE01230022D9035F4825
:1095D0000095FFF7A7FE5E4E0025B61D05EB450082
:1095E00006EB800100940023496856F820001A46D3
:1095F000FFF798FE6D1C0C2DF0D3554E00259636C6
:1096000005EB450006EB800100940023496856F8FD
:1096100020001A46FFF786FE6D1C082DF0D34C4D36
:109620000024F63504EB440005EB800101230A7A9F
:109630000092496855F820000022FFF773FE641C71
:10964000142CEFD30020424AFF211154401C032860
:10965000FBD33F4A0020521F1154401C0228FBD369
:109660003B4808380170FFF727FF00F0C0F83B497E
:10967000012000F0B3FA3A490B2000F0AFFAAFF244
:10968000193202210020FFF717FCAFF21B324FF412
:109690007A710120FFF710FC324A02210120FFF706
:1096A0000BFCBDE8F84001212F4A0846FFF704BC37
:1096B0000C280DD2C0F3C70200F007030120984028
:1096C000C3B22348401F0029815C02D01943815452
:1096D00070479943FBE708280DD2C0F3C70200F09A
:1096E000070301209840C3B2194808380029815C5B
:1096F00002D01943815470479943FBE714280CD2D8
:10970000C0F3C70200F0070301209840C3B210481D
:109710000029815C02D01943815470479943FBE7CB
:109720000C2823D2C0F3C70100F0070201209040AB
:10973000C2B20748C01F405C1040054A521F515C2E
:10974000014213D100207047000C02400004024087
:109750001201002000140240000002401D94000885
:109760004F9400082B9500086D9400080120EAE74B
:10977000082810D2C0F3C70100F007020120904072
:10978000C2B25A48405C1040584A521C515C0142D7
:1097900001D10020D7E70120D5E730B4142810D23A
:1097A000524B00EB4000FF3303EB800453F82000E2
:1097B000227A514001F00102A18830BC89B2FCF745
:1097C00033B930BC704710B50C2801D3012010BD4F
:1097D00000EB400245480F3000EB820450F82200B5
:1097E000A18889B2FCF708F9217A484010BD10B56C
:1097F000FFF7E3FD3D480221801C02F037FDBDE884
:109800001040012002F05DBD2DE9F0410024DFF899
:10981000DC802546072608F19F0800BF690606EB95
:10982000C4000D0E0C280CD200EB400208EB82079E
:1098300058F82200B98889B2FCF7DEF828433D7A4F
:109840004540761EEAD52948401C005DC04310F013
:10985000FF0F10D1E843254EC5B20120355502F067
:109860001CFD204602F019FD284602F016FD0B20D3
:1098700002F027FD355554E62DE9F0410024DFF8CC
:109880006C802546072608F19F0800BF690606EB95
:10989000C4000D0E0C280CD200EB400208EB82072E
:1098A00058F82200B98889B2FCF7A6F828433D7A17
:1098B0004540761EEAD50D48401C005DC04310F0BF
:1098C000FF0F12D1094EE843C5B2305DA8420CD05B
:1098D000012002F0E2FC204602F0DFFC284602F004
:1098E000DCFC0B2002F0EDFC35551AE609010020E6
:1098F0002DE9F04F012197B00846FCF7E5F9854FB7
:10990000052211463846FCF79AF80522042138460C
:10991000FCF795F8052207213846FCF790F8052258
:1099200006213846FCF78BF802208DF840008DF8B0
:109930004100002401258DF842408DF8435029460E
:10994000C002FCF7E9F920200F900FA93846FBF779
:10995000EDFF10200F900FA93846FBF7E7FF80209E
:109960000F900FA93846FBF7E1FF40260FA93846B4
:109970000F96FBF7DBFF684F3846FDF7F5F8072039
:10998000ADF84440ADF84840ADF84C40ADF850401B
:10999000ADF85400ADF84A40ADF84E40ADF8524035
:1099A000ADF8464011A93846FDF702F901213846C5
:1099B000FDF78EF9012211463846FDF7EBF9012239
:1099C00002213846FDF7E6F901218805FCF77CF90C
:1099D000DFF848B15846FEF719F9DFF83C814FF03F
:1099E000C06708F10C08DFF83891CDE9007802A9CA
:1099F000D9F804004FF4807A81E81104A802CDE977
:109A00000540079478120894CDE909400320CDE978
:109A10000B400D94694658460E94FEF77FF90122DB
:109A200010215846FEF728FA00215846FEF7AFF9F4
:109A30003A4C48342046FEF7E9F8CDE9007802AA0E
:109A4000D9F80800694682E841042046FEF766F925
:109A5000012210212046FEF70FFA00212046FEF7D2
:109A600096F938208DF858008DF859508DF85A50D5
:109A70008DF85B5016A8FBF7A6FE3B208DF858002A
:109A80008DF859508DF85A508DF85B5016A8FBF799
:109A90009AFE17B0BDE8F08F204810B5012148307C
:109AA000FEF775F9BDE8104001211C48FEF76FB9BB
:109AB0001B480178012902D14178012901D00020F9
:109AC00070470021017041700120704770B5154C3E
:109AD000124D21462846FEF7E5F9002806D021461A
:109AE0002846FEF702FA0E490120087070BD70B5D5
:109AF0000A4D0D4C483521462846FEF7D3F900287B
:109B000006D021462846FEF7F0F9054901204870A5
:109B100070BD0000000002400030014010640240AF
:109B2000F802002020800010008000186C4810B55A
:109B30008168642907D900F098FA00F0E9FCBDE8D3
:109B40001040FFF71FBC491C816010BD70B5FFF7C6
:109B5000AFFF012829D1634C207853281AD194F8FB
:109B6000FF50FF21204600F045F8A84212D160784E
:109B70005B4D812812D001060CD42978884209D087
:109B80002870A01C00F072F800F040F80020A860D7
:109B9000FFF7F3FBBDE87040FFF77EBF2878802811
:109BA00001D08020ECE70120EAE770BD4C4910B5F8
:109BB000002048604C49AA220A54401CFF28FBD9C7
:109BC0004A4A01210220FFF777F90121484A084655
:109BD000FFF772F9BDE81040FFF75EBF10B5404BCC
:109BE000444C5A6804F8320004EBC200521C416035
:109BF0005A6010BD034610B50020024603E09C5C8D
:109C0000521C2044C0B28A42F9D310BDF8B50027D7
:109C1000354D0324684602F06FFB060012D4C4F1F0
:109C2000FE00B0420EDB7F1CFFB2281932460099BD
:109C300002F050FF344431460098FFF7DBFF28550F
:109C4000641CE7E752202870254800786870AF70E0
:109C500002F02FFBC4F58071281902F0B2FFFF213A
:109C60002148FFF7C7FF85F8FF00F8BD2DE9F05F39
:109C70000124804607780026DFF878A02BE000BF9B
:109C800008EB040999F80150C5F1FE00A04224D365
:109C9000291901EB0800A91C90F802B04846FFF70B
:109CA000A9FF584516D118F8040000214FEA0A020E
:109CB00012F83130834208D138B10AEBC10109F101
:109CC00002004A682946904702E0491CFF29EFD963
:109CD0002C44E41C761CBE42D2D3BDE8F09F0000A9
:109CE00004030020140E0020140F00204D9B0008D8
:109CF0002D9B000814060020012902D0012A02D061
:109D000003E0012A01D0002100E00121FFF745BD59
:109D10002DE9F0410378102B7DD205794779C6787B
:109D20004278C3EBC303002103EB430CFE4B03EB70
:109D30008C0484F8431003F82C2025616160C4E989
:109D40000216C4E90571E16121626164A16BE163FE
:109D5000417C037C03EB0121A162C17A837A03EB8E
:109D6000012101F0010303EB010EA164C17B837BA0
:109D700003EB012101F0010303EB010CE164417BE2
:109D8000037B03EB012101F001032165194401EB81
:109D90004C01714401EB4101E162C179837903EB2C
:109DA00001212163417A037A03EB01216163817808
:109DB000D1B1002184F82410012184F82510807885
:109DC00000B1012084F84200012A0FD00121304661
:109DD000FFF76EFC01212846FFF790FC0121384671
:109DE000BDE8F041FFF78ABC0121E3E700222846E5
:109DF000FFF782FF94F8251000226069FFF77CFFCF
:109E000000213046FFF754FC00212846FFF776FC7E
:109E10000021E4E7FFE7BDE8F08102783AB1012ACA
:109E200008D0022A0AD1401C491E00F035B9401C56
:109E3000491E6DE7401C491E00F04BB970472DE9E3
:109E4000F0470025B84E4FF00109A846C5EBC50004
:109E500000EB400716F8270001285AD106EB8704CB
:109E6000606820B3012002F018FAE8B202F015FA97
:109E70006068FF280ED3FF2002F00FFA002002F0E6
:109E80000CFA032002F01DFA012810D16068FF3897
:109E900060600CE0C0B202F000FA002002F0FDF9B0
:109EA000032002F00EFA012801D1C4F80480A06852
:109EB000A8B1012002F0F1F9E8B202F0EEF90020B9
:109EC00002F0EBF9A068012800D0022002F0E5F9C9
:109ED000032002F0F6F9012801D106F82780E16A93
:109EE000E069884203D2226AA16A8A4215D384F8C3
:109EF000438094F8251000222069FFF7FDFE94F8B6
:109F0000251000226069FFF7F7FE206A10B10220D9
:109F1000A06065E0C4F8089062E0A16959B1801CB6
:109F2000E06184F84390D4E90E104F46814205D990
:109F3000801CE06354E084F8438045E0E068FFF76C
:109F400042FC94F84010490640EA116184F8401040
:109F5000C80603D0C843C00603D004E084F841809B
:109F600001E084F8417094F8411094F82400814293
:109F700002D1226A921C226294F8422091421BD0A4
:109F8000814219D0226B206A904213D3626B9042B7
:109F900010D8C4F81C80C4F83C80C4F84480A06980
:109FA000424610B1401EA06101D184F84320606890
:109FB000401C6060C4F8208084F8421094F843008C
:109FC000012813D0C4F8448094F8251054F8100FD9
:109FD0000022FFF791FE617D00226068FFF78CFE92
:109FE0006D1C102DFFF432AFBDE8F087D4E91212DA
:109FF000206D8F183844636C024423B1934207D11B
:10A00000C4F8448021E094F825100122206914E06E
:10A010008342F8D0BB420AD194F82510002220696F
:10A02000FFF76AFE94F82510012260690BE08B426D
:10A030000BD194F8251000222069FFF75DFE94F8FB
:10A04000251000226069FFF757FE606C801C606479
:10A05000C6E710B5354A02210120FEF72DFFBDE805
:10A06000104033490320FFF7B9BD10B500202E4A38
:10A07000014600BFC0EBC00303EB430312F82340CB
:10A08000012C05D102EB83039961996083F8431099
:10A09000401C1028EED310BD017810290CD2437853
:10A0A000214A012B09D0C1EBC10101EB4101002084
:10A0B00002EB81018863C8637047C1EBC10101EB0A
:10A0C000410102EB810183788B63C07803EB0020B0
:10A0D000F0E710B50478102C10D281784278C0785F
:10A0E00002EB0121104A012809D0C4EBC40000EBA7
:10A0F000400002EB800082691144816110BDC4EB15
:10A10000C40101EB410302EB830100208861C863B5
:10A110008860C86148640862012002F8230002F0E8
:10A12000BCF8204606E00000141000203F9E000806
:10A130001B9E000802F0B1F8002002F0AEF80020EB
:10A1400002F0ABF8BDE81040032002F0BAB80000FE
:10A1500070B504460078102836D2A34BC0EB00152A
:10A1600003EB850062780271002143F8251001613C
:10A17000C160E37843612379C0E906316179016206
:10A18000A1794162E1798162A178A1B15FF000011A
:10A1900080F82C10A17801B1012180F83A10012A31
:10A1A0000BD001211846FFF7A9FAE0780121BDE89C
:10A1B0007040FFF77DBA0121EAE700211846FFF75A
:10A1C0009DFAE0780021F2E770BD02783AB1012AE9
:10A1D00008D0022A0AD1401C491E00F0B4B8401C25
:10A1E000491EB5E7401C491E00F0C9B870472DE96B
:10A1F000F04700257C4E4FF00109A846C5EB051736
:10A2000006EB8704207901287ED1E06830B3012075
:10A2100002F043F8E8B202F040F8E068FF280FD3FC
:10A22000FF2002F03AF816F8270002F036F8022074
:10A2300002F047F8012811D1E068FF38E0600DE036
:10A24000C0B202F02AF816F8270002F026F8022021
:10A2500002F037F8012801D1C4F80C80D4E90C10C1
:10A26000884204D3A06820B1C4E9028001E0801CC8
:10A2700060632069A0B1012002F00FF8E8B202F09B
:10A280000CF8002002F009F8012002F006F8022084
:10A2900002F017F8012803D146F82790C4F810807F
:10A2A000A16AE069884206D356F82700012802D047
:10A2B0002069401C20616069FFF785FA94F8381026
:10A2C000490640EA116184F83810C80603D0C84333
:10A2D000C00603D004E084F8398001E084F83990A6
:10A2E00094F8390094F82C10884202D1E269921C4B
:10A2F000E26194F83A20904211D088420FD0D4E91C
:10A300000712914209D300E00BE0626A914204D83F
:10A31000C4F83480A168491CA160C4F81C8084F88A
:10A320003A006D1C102DFFF469AFBDE8F08710B541
:10A330002E4A02210120FEF7BFFDBDE810402C4946
:10A340000220FFF74BBC10B5017810290AD24478DF
:10A350000023254A012C06D0C1EB011002EB80003E
:10A360000363436310BDC1EB011102EB81018478EB
:10A370000C63C07804EB0020C1E90C0310BD2DE98B
:10A38000F04104780646102C2BD27078164D012827
:10A3900017D1C4EB0417002005EB870145F827000F
:10A3A0000861012001F079FF204601F076FF0020CE
:10A3B00001F073FF15F8270001F06FFF022001F094
:10A3C00080FFB0780128C4EB041005EB80008069A1
:10A3D00005D00022BDE8F0410121FFF78DBC01222C
:10A3E000F8E7BDE8F081000054150020EFA1000857
:10A3F000CBA10008027892B1012A0FD1417810292F
:10A400000CD20379634A012B0DD0C37802EB4111C2
:10A4100080788A6800EB0320104488607047401CF5
:10A42000491E00F088B8002302EB41101A468360F1
:10A430000361017F4068FFF75FBC2DE9F041002513
:10A44000544E2F4606EB4514207800284FD0E06884
:10A4500060B3012001F021FFE8B201F01EFFE068C7
:10A460004FF6FF71884210D3FF2001F016FFFF2046
:10A4700001F013FF042001F024FF012816D1E06849
:10A48000A0F57F40FF38E06010E0C0B201F005FFAA
:10A49000E068082801D9012000E0002001F0FDFE5D
:10A4A000042001F00EFF012800D1E760D4E9052067
:10A4B000A1681318D9B12069801C2061904203D291
:10A4C000217F0022606804E0984205D2217F0122AA
:10A4D0006068FFF711FC0AE0491E2761A160217F37
:10A4E00000226068FFF708FCE068401CE0606D1C1B
:10A4F000102DA7D3BDE8F08110B5274A0221012015
:10A50000FEF7DAFCBDE8104024490420FFF766BBE3
:10A5100070B500241F4D264605EB44100178012933
:10A5200005D18660017F40680022FFF7E5FB641CCF
:10A53000102CF1D370BD70B50178102928D2427962
:10A540000479437804EB0226C279847904EB02256E
:10A55000104AC47802EB411200211370C2E9014194
:10A5600002F1100CD1608CE86200807840B1D161BA
:10A57000012B07D001212046BDE87040FFF7BEB88F
:10A580000121F4E700222046FFF7B6FB0021F2E7A5
:10A5900070BD0000141900203BA40008F5A30008BA
:10A5A0007047F0B50346454850F82340257E012DFD
:10A5B00005D0E568954205D26FF00200F0BD6FF05E
:10A5C0000100F0BD2669002E02DBA568AE4202D96B
:10A5D0006FF00300F0BD6669002E01DBAE4202D9C8
:10A5E0006FF00400F0BD0025657650F823406668E2
:10A5F000646946F824202C460BE050F823600F5D78
:10A60000D6F80CE0D6F800C076690EFB06C6A75552
:10A61000641C9442F1D350F823104C69641C4C61C3
:10A6200050F823108E68B44200D14D6150F82300D9
:10A63000D0E904138B4201D1012101761046F0BD0F
:10A64000F0B51E4A52F820305C7E012C08D01D69FE
:10A65000002D02DB9C68A54205D96FF00300F0BD18
:10A660004FF0FF30F0BD5D69002D01DBA54202D93E
:10A670006FF00400F0BD00241C7652F820301E69F3
:10A680005D681F68DB6855F8265003FB06730B6096
:10A6900052F820100B695B1C0B6152F820108E6879
:10A6A000B34200D10C6152F82000D0E904128A4272
:10A6B00001D1012141762846F0BD0000640300204D
:10A6C00070B5057888B0032D39D2437805EB450184
:10A6D00001EBC501FE4A02EB810402F821308378C8
:10A6E000A370C178F82900D9F821A16001794279D5
:10A6F00001EB022161618179A161C1792177017A40
:10A700006177417AA177807A607004F110011C2290
:10A71000684602F024FAEE4805EB4501D03000EB24
:10A72000810594E80F00AE68B0476078012806D133
:10A7300000206061686808B0BDE87040004708B05C
:10A7400070BD02782AB1012A06D1401C491E00F0D2
:10A75000ACBB401C491EB3E77047F0B5DC4E87B078
:10A76000002500BF05EB450000EBC50006EB8004AB
:10A77000606910B3607B00B3206910B1401E206196
:10A780001BE0012001F089FD022001F086FD092077
:10A7900001F097FD00206073206104F110011C227C
:10A7A000684602F0DCF9CA4905EB4500D03101EBFF
:10A7B0008000876894E80F00B8476D1C032DD1D343
:10A7C00007B0F0BD70B5C24C94F82C0001282BD115
:10A7D00094F84C00012827D101F05FFD012001F021
:10A7E0005CFD94F838000025012817D0002001F006
:10A7F00054FD00BF54F8341FB64801F037FD09205E
:10A8000001F05FFD2576657114F8070C01280BD166
:10A81000AF48D0300069BDE870400047022001F029
:10A820003CFD84F83850E5E770BD70B5A84C207841
:10A83000012827D194F82000012823D101F02DFD13
:10A84000002001F02AFD207B0025012815D00020E2
:10A8500001F023FDA048A16801F008FD092001F0E6
:10A8600030FD84F820506573607801280AD198483B
:10A87000D0304068BDE870400047022001F00DFD77
:10A880002573E7E770BD0FB410F0FF002DE9F05F0E
:10A89000924E119DDFF84882DFF848927ED0012861
:10A8A0007DD1DFF844B208220A215846FBF7C7F8E9
:10A8B00008220B215846FBF7C2F88C4C4FF0010AD6
:10A8C000022784F804A0214658462760FBF72EF89B
:10A8D000277102215846FBF7A5F830152060214664
:10A8E0005846FBF723F8F014206021465846FBF742
:10A8F0001DF80121C804FBF705FA3046FBF798FF65
:10A90000109804F1080104F12C0251F8200070495C
:10A91000C0310860C5F3074032F810008880C5F3E5
:10A9200007203C3A32F81000C880E8B2083232F80A
:10A93000100008813046FBF7B4FF01213046FCF7D8
:10A9400021F8012228213046FCF7BBF8012240F211
:10A9500026613046FCF7B5F8012280213046FCF72D
:10A96000A8F8012240213046FCF7A3F845464046AE
:10A97000FDF74CF9564C4020843404F51878C4E9AE
:10A9800002804705F8202061361DC4E90076214683
:10A990002846FDF7C3F90122102101E03BE036E033
:10A9A0002846FDF769FA00212846FDF7F0F94846E8
:10A9B000FDF72CF966600025464E2760C4E9026564
:10A9C0000C98206121464846FDF7A8F90122102184
:10A9D0004846FDF751FA00214846FDF7D8F9434CA7
:10A9E0000F200C3C20702046FAF7EDFE0D20207061
:10A9F0002046FAF7E8FE342020702046FAF7E3FEFE
:10AA00003348C0E9146880F84BA080F84C50BDE88A
:10AA1000F01F5DF814FB3046FBF70AFF4046FDF7D8
:10AA2000F5F84846BDE8F01F5DF814EBFDF7EEB809
:10AA30002748406B002803D001212A48FDF7A7B919
:10AA4000704710B5224C206B002829D094F84B0099
:10AA5000012825D102212448FAF7E2FF002084F8DA
:10AA60004B0004F184004021C1601C49091D416074
:10AA700000F5187181604FF000610160216B016188
:10AA8000174C01462046FDF749F9012210212046C6
:10AA9000FDF7F2F92046BDE810400121FDF777B936
:10AAA00010BD2DE9F05F124EDDE90CB4114DDFF859
:10AAB0004890924610F0FF007DD001287CD1DFF84D
:10AAC0003C8007220A214046FAF7B9FF072217E027
:10AAD000481B0020241F0020341D0020004C004093
